{
  "_format": "hh-sol-artifact-1",
  "contractName": "Voting",
  "sourceName": "contracts/Voting.sol",
  "abi": [
    {
      "inputs": [
        {
          "internalType": "string[]",
          "name": "_candidates",
          "type": "string[]"
        }
      ],
      "stateMutability": "nonpayable",
      "type": "constructor"
    },
    {
      "anonymous": false,
      "inputs": [
        {
          "indexed": false,
          "internalType": "string",
          "name": "candidate",
          "type": "string"
        }
      ],
      "name": "CandidateRegistered",
      "type": "event"
    },
    {
      "anonymous": false,
      "inputs": [
        {
          "indexed": true,
          "internalType": "address",
          "name": "voter",
          "type": "address"
        },
        {
          "indexed": false,
          "internalType": "string",
          "name": "candidate",
          "type": "string"
        }
      ],
      "name": "Voted",
      "type": "event"
    },
    {
      "inputs": [
        {
          "internalType": "uint256",
          "name": "",
          "type": "uint256"
        }
      ],
      "name": "candidates",
      "outputs": [
        {
          "internalType": "string",
          "name": "",
          "type": "string"
        }
      ],
      "stateMutability": "view",
      "type": "function"
    },
    {
      "inputs": [
        {
          "internalType": "string",
          "name": "_candidate",
          "type": "string"
        }
      ],
      "name": "validCandidate",
      "outputs": [
        {
          "internalType": "bool",
          "name": "",
          "type": "bool"
        }
      ],
      "stateMutability": "view",
      "type": "function"
    },
    {
      "inputs": [
        {
          "internalType": "string",
          "name": "_candidate",
          "type": "string"
        }
      ],
      "name": "vote",
      "outputs": [],
      "stateMutability": "nonpayable",
      "type": "function"
    },
    {
      "inputs": [
        {
          "internalType": "string",
          "name": "",
          "type": "string"
        }
      ],
      "name": "votes",
      "outputs": [
        {
          "internalType": "uint256",
          "name": "",
          "type": "uint256"
        }
      ],
      "stateMutability": "view",
      "type": "function"
    }
  ],
  "bytecode": "0x60806040523480156200001157600080fd5b506040516200117938038062001179833981810160405281019062000037919062000445565b80600090805190602001906200004f929190620000c9565b5060005b8151811015620000c1577fa7f40d89c2832464ef503bcdb8a3bac9437d2fa10738fc8e2cb615585cd9625682828151811062000094576200009362000496565b5b6020026020010151604051620000ab919062000522565b60405180910390a1808060010191505062000053565b50506200086d565b82805482825590600052602060002090810192821562000116579160200282015b828111156200011557825182908162000104919062000786565b5091602001919060010190620000ea565b5b50905062000125919062000129565b5090565b5b808211156200014d576000818162000143919062000151565b506001016200012a565b5090565b5080546200015f9062000575565b6000825580601f1062000173575062000194565b601f01602090049060005260206000209081019062000193919062000197565b5b50565b5b80821115620001b257600081600090555060010162000198565b5090565b6000604051905090565b600080fd5b600080fd5b600080fd5b6000601f19601f8301169050919050565b7f4e487b7100000000000000000000000000000000000000000000000000000000600052604160045260246000fd5b6200021a82620001cf565b810181811067ffffffffffffffff821117156200023c576200023b620001e0565b5b80604052505050565b600062000251620001b6565b90506200025f82826200020f565b919050565b600067ffffffffffffffff821115620002825762000281620001e0565b5b602082029050602081019050919050565b600080fd5b600080fd5b600067ffffffffffffffff821115620002bb57620002ba620001e0565b5b620002c682620001cf565b9050602081019050919050565b60005b83811015620002f3578082015181840152602081019050620002d6565b60008484015250505050565b60006200031662000310846200029d565b62000245565b90508281526020810184848401111562000335576200033462000298565b5b62000342848285620002d3565b509392505050565b600082601f830112620003625762000361620001ca565b5b815162000374848260208601620002ff565b91505092915050565b6000620003946200038e8462000264565b62000245565b90508083825260208201905060208402830185811115620003ba57620003b962000293565b5b835b818110156200040857805167ffffffffffffffff811115620003e357620003e2620001ca565b5b808601620003f289826200034a565b85526020850194505050602081019050620003bc565b5050509392505050565b600082601f8301126200042a5762000429620001ca565b5b81516200043c8482602086016200037d565b91505092915050565b6000602082840312156200045e576200045d620001c0565b5b600082015167ffffffffffffffff8111156200047f576200047e620001c5565b5b6200048d8482850162000412565b91505092915050565b7f4e487b7100000000000000000000000000000000000000000000000000000000600052603260045260246000fd5b600081519050919050565b600082825260208201905092915050565b6000620004ee82620004c5565b620004fa8185620004d0565b93506200050c818560208601620002d3565b6200051781620001cf565b840191505092915050565b600060208201905081810360008301526200053e8184620004e1565b905092915050565b7f4e487b7100000000000000000000000000000000000000000000000000000000600052602260045260246000fd5b600060028204905060018216806200058e57607f821691505b602082108103620005a457620005a362000546565b5b50919050565b60008190508160005260206000209050919050565b60006020601f8301049050919050565b600082821b905092915050565b6000600883026200060e7fffffffffffffffffffffffffffffffffffffffffffffffffffffffffffffffff82620005cf565b6200061a8683620005cf565b95508019841693508086168417925050509392505050565b6000819050919050565b6000819050919050565b600062000667620006616200065b8462000632565b6200063c565b62000632565b9050919050565b6000819050919050565b620006838362000646565b6200069b62000692826200066e565b848454620005dc565b825550505050565b600090565b620006b2620006a3565b620006bf81848462000678565b505050565b5b81811015620006e757620006db600082620006a8565b600181019050620006c5565b5050565b601f82111562000736576200070081620005aa565b6200070b84620005bf565b810160208510156200071b578190505b620007336200072a85620005bf565b830182620006c4565b50505b505050565b600082821c905092915050565b60006200075b600019846008026200073b565b1980831691505092915050565b600062000776838362000748565b9150826002028217905092915050565b6200079182620004c5565b67ffffffffffffffff811115620007ad57620007ac620001e0565b5b620007b9825462000575565b620007c6828285620006eb565b600060209050601f831160018114620007fe5760008415620007e9578287015190505b620007f5858262000768565b86555062000865565b601f1984166200080e86620005aa565b60005b82811015620008385784890151825560018201915060208501945060208101905062000811565b8683101562000858578489015162000854601f89168262000748565b8355505b6001600288020188555050505b505050505050565b6108fc806200087d6000396000f3fe608060405234801561001057600080fd5b506004361061004c5760003560e01c80633477ee2e14610051578063538c91b214610081578063b99ef1fa146100b1578063fc36e15b146100e1575b600080fd5b61006b60048036038101906100669190610395565b6100fd565b6040516100789190610452565b60405180910390f35b61009b600480360381019061009691906105a9565b6101a9565b6040516100a8919061060d565b60405180910390f35b6100cb60048036038101906100c691906105a9565b610250565b6040516100d89190610637565b60405180910390f35b6100fb60048036038101906100f691906105a9565b61027e565b005b6000818154811061010d57600080fd5b90600052602060002001600091509050805461012890610681565b80601f016020809104026020016040519081016040528092919081815260200182805461015490610681565b80156101a15780601f10610176576101008083540402835291602001916101a1565b820191906000526020600020905b81548152906001019060200180831161018457829003601f168201915b505050505081565b600080600090505b60008054905081101561024557826040516020016101cf91906106ee565b60405160208183030381529060405280519060200120600082815481106101f9576101f8610705565b5b9060005260206000200160405160200161021391906107cc565b604051602081830303815290604052805190602001200361023857600191505061024b565b80806001019150506101b1565b50600090505b919050565b6001818051602081018201805184825260208301602085012081835280955050505050506000915090505481565b610287816101a9565b6102c6576040517f08c379a00000000000000000000000000000000000000000000000000000000081526004016102bd9061082f565b60405180910390fd5b6001816040516102d691906106ee565b908152602001604051809103902060008154809291906102f59061087e565b91905055503373ffffffffffffffffffffffffffffffffffffffff167fcb6783276e8a4347387036bbfea000268f0a4b1f8c46ac79980609f2af8d2acd826040516103409190610452565b60405180910390a250565b6000604051905090565b600080fd5b600080fd5b6000819050919050565b6103728161035f565b811461037d57600080fd5b50565b60008135905061038f81610369565b92915050565b6000602082840312156103ab576103aa610355565b5b60006103b984828501610380565b91505092915050565b600081519050919050565b600082825260208201905092915050565b60005b838110156103fc5780820151818401526020810190506103e1565b60008484015250505050565b6000601f19601f8301169050919050565b6000610424826103c2565b61042e81856103cd565b935061043e8185602086016103de565b61044781610408565b840191505092915050565b6000602082019050818103600083015261046c8184610419565b905092915050565b600080fd5b600080fd5b7f4e487b7100000000000000000000000000000000000000000000000000000000600052604160045260246000fd5b6104b682610408565b810181811067ffffffffffffffff821117156104d5576104d461047e565b5b80604052505050565b60006104e861034b565b90506104f482826104ad565b919050565b600067ffffffffffffffff8211156105145761051361047e565b5b61051d82610408565b9050602081019050919050565b82818337600083830152505050565b600061054c610547846104f9565b6104de565b90508281526020810184848401111561056857610567610479565b5b61057384828561052a565b509392505050565b600082601f8301126105905761058f610474565b5b81356105a0848260208601610539565b91505092915050565b6000602082840312156105bf576105be610355565b5b600082013567ffffffffffffffff8111156105dd576105dc61035a565b5b6105e98482850161057b565b91505092915050565b60008115159050919050565b610607816105f2565b82525050565b600060208201905061062260008301846105fe565b92915050565b6106318161035f565b82525050565b600060208201905061064c6000830184610628565b92915050565b7f4e487b7100000000000000000000000000000000000000000000000000000000600052602260045260246000fd5b6000600282049050600182168061069957607f821691505b6020821081036106ac576106ab610652565b5b50919050565b600081905092915050565b60006106c8826103c2565b6106d281856106b2565b93506106e28185602086016103de565b80840191505092915050565b60006106fa82846106bd565b915081905092915050565b7f4e487b7100000000000000000000000000000000000000000000000000000000600052603260045260246000fd5b60008190508160005260206000209050919050565b6000815461075681610681565b61076081866106b2565b9450600182166000811461077b5760018114610790576107c3565b60ff19831686528115158202860193506107c3565b61079985610734565b60005b838110156107bb5781548189015260018201915060208101905061079c565b838801955050505b50505092915050565b60006107d88284610749565b915081905092915050565b7f496e76616c69642063616e646964617465000000000000000000000000000000600082015250565b60006108196011836103cd565b9150610824826107e3565b602082019050919050565b600060208201905081810360008301526108488161080c565b9050919050565b7f4e487b7100000000000000000000000000000000000000000000000000000000600052601160045260246000fd5b60006108898261035f565b91507fffffffffffffffffffffffffffffffffffffffffffffffffffffffffffffffff82036108bb576108ba61084f565b5b60018201905091905056fea2646970667358221220060e061a38cc540c54ec22eae3d2b686eaf8126616ebdc81953573fa089323e164736f6c63430008180033",
  "linkReferences": {},
  "deployedLinkReferences": {}
}