{
  "_format": "hh-sol-artifact-1",
  "contractName": "Voting",
  "sourceName": "contracts/Voting.sol",
  "abi": [
    {
      "inputs": [
        {
          "internalType": "string[]",
          "name": "_candidates",
          "type": "string[]"
        }
      ],
      "stateMutability": "nonpayable",
      "type": "constructor"
    },
    {
      "anonymous": false,
      "inputs": [
        {
          "indexed": false,
          "internalType": "string",
          "name": "candidate",
          "type": "string"
        }
      ],
      "name": "CandidateRegistered",
      "type": "event"
    },
    {
      "anonymous": false,
      "inputs": [
        {
          "indexed": true,
          "internalType": "address",
          "name": "voter",
          "type": "address"
        },
        {
          "indexed": false,
          "internalType": "string",
          "name": "candidate",
          "type": "string"
        }
      ],
      "name": "Voted",
      "type": "event"
    },
    {
      "inputs": [
        {
          "internalType": "uint256",
          "name": "",
          "type": "uint256"
        }
      ],
      "name": "candidates",
      "outputs": [
        {
          "internalType": "string",
          "name": "",
          "type": "string"
        }
      ],
      "stateMutability": "view",
      "type": "function"
    },
    {
      "inputs": [],
      "name": "getCandidatesCount",
      "outputs": [
        {
          "internalType": "uint256",
          "name": "",
          "type": "uint256"
        }
      ],
      "stateMutability": "view",
      "type": "function"
    },
    {
      "inputs": [
        {
          "internalType": "string",
          "name": "_candidate",
          "type": "string"
        }
      ],
      "name": "validCandidate",
      "outputs": [
        {
          "internalType": "bool",
          "name": "",
          "type": "bool"
        }
      ],
      "stateMutability": "view",
      "type": "function"
    },
    {
      "inputs": [
        {
          "internalType": "string",
          "name": "_candidate",
          "type": "string"
        }
      ],
      "name": "vote",
      "outputs": [],
      "stateMutability": "nonpayable",
      "type": "function"
    },
    {
      "inputs": [
        {
          "internalType": "string",
          "name": "",
          "type": "string"
        }
      ],
      "name": "votes",
      "outputs": [
        {
          "internalType": "uint256",
          "name": "",
          "type": "uint256"
        }
      ],
      "stateMutability": "view",
      "type": "function"
    }
  ],
  "bytecode": "0x60806040523480156200001157600080fd5b5060405162000f2838038062000f2883398181016040528101906200003791906200037e565b80600090805190602001906200004f929190620000f5565b5060005b8151811015620000ed577fa7f40d89c2832464ef503bcdb8a3bac9437d2fa10738fc8e2cb615585cd96256828281518110620000b8577f4e487b7100000000000000000000000000000000000000000000000000000000600052603260045260246000fd5b6020026020010151604051620000cf919062000404565b60405180910390a18080620000e49062000550565b91505062000053565b50506200063c565b82805482825590600052602060002090810192821562000149579160200282015b8281111562000148578251829080519060200190620001379291906200015c565b509160200191906001019062000116565b5b509050620001589190620001ed565b5090565b8280546200016a906200051a565b90600052602060002090601f0160209004810192826200018e5760008555620001da565b82601f10620001a957805160ff1916838001178555620001da565b82800160010185558215620001da579182015b82811115620001d9578251825591602001919060010190620001bc565b5b509050620001e9919062000215565b5090565b5b8082111562000211576000818162000207919062000234565b50600101620001ee565b5090565b5b808211156200023057600081600090555060010162000216565b5090565b50805462000242906200051a565b6000825580601f1062000256575062000277565b601f01602090049060005260206000209081019062000276919062000215565b5b50565b6000620002916200028b846200045c565b62000428565b9050808382526020820190508260005b85811015620002d55781518501620002ba888262000351565b845260208401935060208301925050600181019050620002a1565b5050509392505050565b6000620002f6620002f0846200048b565b62000428565b9050828152602081018484840111156200030f57600080fd5b6200031c848285620004e4565b509392505050565b600082601f8301126200033657600080fd5b8151620003488482602086016200027a565b91505092915050565b600082601f8301126200036357600080fd5b815162000375848260208601620002df565b91505092915050565b6000602082840312156200039157600080fd5b600082015167ffffffffffffffff811115620003ac57600080fd5b620003ba8482850162000324565b91505092915050565b6000620003d082620004be565b620003dc8185620004c9565b9350620003ee818560208601620004e4565b620003f9816200062b565b840191505092915050565b60006020820190508181036000830152620004208184620003c3565b905092915050565b6000604051905081810181811067ffffffffffffffff82111715620004525762000451620005fc565b5b8060405250919050565b600067ffffffffffffffff8211156200047a5762000479620005fc565b5b602082029050602081019050919050565b600067ffffffffffffffff821115620004a957620004a8620005fc565b5b601f19601f8301169050602081019050919050565b600081519050919050565b600082825260208201905092915050565b6000819050919050565b60005b8381101562000504578082015181840152602081019050620004e7565b8381111562000514576000848401525b50505050565b600060028204905060018216806200053357607f821691505b602082108114156200054a5762000549620005cd565b5b50919050565b60006200055d82620004da565b91507fffffffffffffffffffffffffffffffffffffffffffffffffffffffffffffffff8214156200059357620005926200059e565b5b600182019050919050565b7f4e487b7100000000000000000000000000000000000000000000000000000000600052601160045260246000fd5b7f4e487b7100000000000000000000000000000000000000000000000000000000600052602260045260246000fd5b7f4e487b7100000000000000000000000000000000000000000000000000000000600052604160045260246000fd5b6000601f19601f8301169050919050565b6108dc806200064c6000396000f3fe608060405234801561001057600080fd5b50600436106100575760003560e01c80633477ee2e1461005c578063538c91b21461008c578063b99ef1fa146100bc578063bb9aa28f146100ec578063fc36e15b1461010a575b600080fd5b6100766004803603810190610071919061046b565b610126565b6040516100839190610624565b60405180910390f35b6100a660048036038101906100a1919061042a565b6101d2565b6040516100b39190610609565b60405180910390f35b6100d660048036038101906100d1919061042a565b6102a6565b6040516100e39190610666565b60405180910390f35b6100f46102d4565b6040516101019190610666565b60405180910390f35b610124600480360381019061011f919061042a565b6102e0565b005b6000818154811061013657600080fd5b90600052602060002001600091509050805461015190610776565b80601f016020809104026020016040519081016040528092919081815260200182805461017d90610776565b80156101ca5780601f1061019f576101008083540402835291602001916101ca565b820191906000526020600020905b8154815290600101906020018083116101ad57829003601f168201915b505050505081565b600080600090505b60008054905081101561029b57826040516020016101f891906105db565b6040516020818303038152906040528051906020012060008281548110610248577f4e487b7100000000000000000000000000000000000000000000000000000000600052603260045260246000fd5b9060005260206000200160405160200161026291906105f2565b6040516020818303038152906040528051906020012014156102885760019150506102a1565b8080610293906107a8565b9150506101da565b50600090505b919050565b6001818051602081018201805184825260208301602085012081835280955050505050506000915090505481565b60008080549050905090565b6102e9816101d2565b610328576040517f08c379a000000000000000000000000000000000000000000000000000000000815260040161031f90610646565b60405180910390fd5b60018160405161033891906105db565b90815260200160405180910390206000815480929190610357906107a8565b91905055503373ffffffffffffffffffffffffffffffffffffffff167fcb6783276e8a4347387036bbfea000268f0a4b1f8c46ac79980609f2af8d2acd826040516103a29190610624565b60405180910390a250565b60006103c06103bb846106b2565b610681565b9050828152602081018484840111156103d857600080fd5b6103e3848285610734565b509392505050565b600082601f8301126103fc57600080fd5b813561040c8482602086016103ad565b91505092915050565b6000813590506104248161088f565b92915050565b60006020828403121561043c57600080fd5b600082013567ffffffffffffffff81111561045657600080fd5b610462848285016103eb565b91505092915050565b60006020828403121561047d57600080fd5b600061048b84828501610415565b91505092915050565b61049d8161071e565b82525050565b60006104ae826106f7565b6104b88185610702565b93506104c8818560208601610743565b6104d18161087e565b840191505092915050565b60006104e7826106f7565b6104f18185610713565b9350610501818560208601610743565b80840191505092915050565b6000815461051a81610776565b6105248186610713565b9450600182166000811461053f576001811461055057610583565b60ff19831686528186019350610583565b610559856106e2565b60005b8381101561057b5781548189015260018201915060208101905061055c565b838801955050505b50505092915050565b6000610599601183610702565b91507f496e76616c69642063616e6469646174650000000000000000000000000000006000830152602082019050919050565b6105d58161072a565b82525050565b60006105e782846104dc565b915081905092915050565b60006105fe828461050d565b915081905092915050565b600060208201905061061e6000830184610494565b92915050565b6000602082019050818103600083015261063e81846104a3565b905092915050565b6000602082019050818103600083015261065f8161058c565b9050919050565b600060208201905061067b60008301846105cc565b92915050565b6000604051905081810181811067ffffffffffffffff821117156106a8576106a761084f565b5b8060405250919050565b600067ffffffffffffffff8211156106cd576106cc61084f565b5b601f19601f8301169050602081019050919050565b60008190508160005260206000209050919050565b600081519050919050565b600082825260208201905092915050565b600081905092915050565b60008115159050919050565b6000819050919050565b82818337600083830152505050565b60005b83811015610761578082015181840152602081019050610746565b83811115610770576000848401525b50505050565b6000600282049050600182168061078e57607f821691505b602082108114156107a2576107a1610820565b5b50919050565b60006107b38261072a565b91507fffffffffffffffffffffffffffffffffffffffffffffffffffffffffffffffff8214156107e6576107e56107f1565b5b600182019050919050565b7f4e487b7100000000000000000000000000000000000000000000000000000000600052601160045260246000fd5b7f4e487b7100000000000000000000000000000000000000000000000000000000600052602260045260246000fd5b7f4e487b7100000000000000000000000000000000000000000000000000000000600052604160045260246000fd5b6000601f19601f8301169050919050565b6108988161072a565b81146108a357600080fd5b5056fea26469706673582212203eec424f92695c4b4b6eda3ac28a28608a7b57ba1592a3b2561ba5118defe41564736f6c63430008000033",
  "linkReferences": {},
  "deployedLinkReferences": {}
}