{
  "_format": "hh-sol-artifact-1",
  "contractName": "Voting",
  "sourceName": "contracts/Voting.sol",
  "abi": [
    {
      "inputs": [
        {
          "internalType": "string[]",
          "name": "_candidates",
          "type": "string[]"
        }
      ],
      "stateMutability": "nonpayable",
      "type": "constructor"
    },
    {
      "anonymous": false,
      "inputs": [
        {
          "indexed": false,
          "internalType": "string",
          "name": "candidate",
          "type": "string"
        }
      ],
      "name": "CandidateRegistered",
      "type": "event"
    },
    {
      "anonymous": false,
      "inputs": [
        {
          "indexed": true,
          "internalType": "address",
          "name": "voter",
          "type": "address"
        },
        {
          "indexed": false,
          "internalType": "string",
          "name": "candidate",
          "type": "string"
        }
      ],
      "name": "Voted",
      "type": "event"
    },
    {
      "inputs": [
        {
          "internalType": "uint256",
          "name": "",
          "type": "uint256"
        }
      ],
      "name": "candidates",
      "outputs": [
        {
          "internalType": "string",
          "name": "",
          "type": "string"
        }
      ],
      "stateMutability": "view",
      "type": "function"
    },
    {
      "inputs": [
        {
          "internalType": "string",
          "name": "_candidate",
          "type": "string"
        }
      ],
      "name": "validCandidate",
      "outputs": [
        {
          "internalType": "bool",
          "name": "",
          "type": "bool"
        }
      ],
      "stateMutability": "view",
      "type": "function"
    },
    {
      "inputs": [
        {
          "internalType": "string",
          "name": "_candidate",
          "type": "string"
        }
      ],
      "name": "vote",
      "outputs": [],
      "stateMutability": "nonpayable",
      "type": "function"
    },
    {
      "inputs": [
        {
          "internalType": "string",
          "name": "",
          "type": "string"
        }
      ],
      "name": "votes",
      "outputs": [
        {
          "internalType": "uint256",
          "name": "",
          "type": "uint256"
        }
      ],
      "stateMutability": "view",
      "type": "function"
    }
  ],
  "bytecode": "0x60806040523480156200001157600080fd5b5060405162000ef338038062000ef383398181016040528101906200003791906200037e565b80600090805190602001906200004f929190620000f5565b5060005b8151811015620000ed577fa7f40d89c2832464ef503bcdb8a3bac9437d2fa10738fc8e2cb615585cd96256828281518110620000b8577f4e487b7100000000000000000000000000000000000000000000000000000000600052603260045260246000fd5b6020026020010151604051620000cf919062000404565b60405180910390a18080620000e49062000550565b91505062000053565b50506200063c565b82805482825590600052602060002090810192821562000149579160200282015b8281111562000148578251829080519060200190620001379291906200015c565b509160200191906001019062000116565b5b509050620001589190620001ed565b5090565b8280546200016a906200051a565b90600052602060002090601f0160209004810192826200018e5760008555620001da565b82601f10620001a957805160ff1916838001178555620001da565b82800160010185558215620001da579182015b82811115620001d9578251825591602001919060010190620001bc565b5b509050620001e9919062000215565b5090565b5b8082111562000211576000818162000207919062000234565b50600101620001ee565b5090565b5b808211156200023057600081600090555060010162000216565b5090565b50805462000242906200051a565b6000825580601f1062000256575062000277565b601f01602090049060005260206000209081019062000276919062000215565b5b50565b6000620002916200028b846200045c565b62000428565b9050808382526020820190508260005b85811015620002d55781518501620002ba888262000351565b845260208401935060208301925050600181019050620002a1565b5050509392505050565b6000620002f6620002f0846200048b565b62000428565b9050828152602081018484840111156200030f57600080fd5b6200031c848285620004e4565b509392505050565b600082601f8301126200033657600080fd5b8151620003488482602086016200027a565b91505092915050565b600082601f8301126200036357600080fd5b815162000375848260208601620002df565b91505092915050565b6000602082840312156200039157600080fd5b600082015167ffffffffffffffff811115620003ac57600080fd5b620003ba8482850162000324565b91505092915050565b6000620003d082620004be565b620003dc8185620004c9565b9350620003ee818560208601620004e4565b620003f9816200062b565b840191505092915050565b60006020820190508181036000830152620004208184620003c3565b905092915050565b6000604051905081810181811067ffffffffffffffff82111715620004525762000451620005fc565b5b8060405250919050565b600067ffffffffffffffff8211156200047a5762000479620005fc565b5b602082029050602081019050919050565b600067ffffffffffffffff821115620004a957620004a8620005fc565b5b601f19601f8301169050602081019050919050565b600081519050919050565b600082825260208201905092915050565b6000819050919050565b60005b8381101562000504578082015181840152602081019050620004e7565b8381111562000514576000848401525b50505050565b600060028204905060018216806200053357607f821691505b602082108114156200054a5762000549620005cd565b5b50919050565b60006200055d82620004da565b91507fffffffffffffffffffffffffffffffffffffffffffffffffffffffffffffffff8214156200059357620005926200059e565b5b600182019050919050565b7f4e487b7100000000000000000000000000000000000000000000000000000000600052601160045260246000fd5b7f4e487b7100000000000000000000000000000000000000000000000000000000600052602260045260246000fd5b7f4e487b7100000000000000000000000000000000000000000000000000000000600052604160045260246000fd5b6000601f19601f8301169050919050565b6108a7806200064c6000396000f3fe608060405234801561001057600080fd5b506004361061004c5760003560e01c80633477ee2e14610051578063538c91b214610081578063b99ef1fa146100b1578063fc36e15b146100e1575b600080fd5b61006b60048036038101906100669190610436565b6100fd565b60405161007891906105ef565b60405180910390f35b61009b600480360381019061009691906103f5565b6101a9565b6040516100a891906105d4565b60405180910390f35b6100cb60048036038101906100c691906103f5565b61027d565b6040516100d89190610631565b60405180910390f35b6100fb60048036038101906100f691906103f5565b6102ab565b005b6000818154811061010d57600080fd5b90600052602060002001600091509050805461012890610741565b80601f016020809104026020016040519081016040528092919081815260200182805461015490610741565b80156101a15780601f10610176576101008083540402835291602001916101a1565b820191906000526020600020905b81548152906001019060200180831161018457829003601f168201915b505050505081565b600080600090505b60008054905081101561027257826040516020016101cf91906105a6565b604051602081830303815290604052805190602001206000828154811061021f577f4e487b7100000000000000000000000000000000000000000000000000000000600052603260045260246000fd5b9060005260206000200160405160200161023991906105bd565b60405160208183030381529060405280519060200120141561025f576001915050610278565b808061026a90610773565b9150506101b1565b50600090505b919050565b6001818051602081018201805184825260208301602085012081835280955050505050506000915090505481565b6102b4816101a9565b6102f3576040517f08c379a00000000000000000000000000000000000000000000000000000000081526004016102ea90610611565b60405180910390fd5b60018160405161030391906105a6565b9081526020016040518091039020600081548092919061032290610773565b91905055503373ffffffffffffffffffffffffffffffffffffffff167fcb6783276e8a4347387036bbfea000268f0a4b1f8c46ac79980609f2af8d2acd8260405161036d91906105ef565b60405180910390a250565b600061038b6103868461067d565b61064c565b9050828152602081018484840111156103a357600080fd5b6103ae8482856106ff565b509392505050565b600082601f8301126103c757600080fd5b81356103d7848260208601610378565b91505092915050565b6000813590506103ef8161085a565b92915050565b60006020828403121561040757600080fd5b600082013567ffffffffffffffff81111561042157600080fd5b61042d848285016103b6565b91505092915050565b60006020828403121561044857600080fd5b6000610456848285016103e0565b91505092915050565b610468816106e9565b82525050565b6000610479826106c2565b61048381856106cd565b935061049381856020860161070e565b61049c81610849565b840191505092915050565b60006104b2826106c2565b6104bc81856106de565b93506104cc81856020860161070e565b80840191505092915050565b600081546104e581610741565b6104ef81866106de565b9450600182166000811461050a576001811461051b5761054e565b60ff1983168652818601935061054e565b610524856106ad565b60005b8381101561054657815481890152600182019150602081019050610527565b838801955050505b50505092915050565b60006105646011836106cd565b91507f496e76616c69642063616e6469646174650000000000000000000000000000006000830152602082019050919050565b6105a0816106f5565b82525050565b60006105b282846104a7565b915081905092915050565b60006105c982846104d8565b915081905092915050565b60006020820190506105e9600083018461045f565b92915050565b60006020820190508181036000830152610609818461046e565b905092915050565b6000602082019050818103600083015261062a81610557565b9050919050565b60006020820190506106466000830184610597565b92915050565b6000604051905081810181811067ffffffffffffffff821117156106735761067261081a565b5b8060405250919050565b600067ffffffffffffffff8211156106985761069761081a565b5b601f19601f8301169050602081019050919050565b60008190508160005260206000209050919050565b600081519050919050565b600082825260208201905092915050565b600081905092915050565b60008115159050919050565b6000819050919050565b82818337600083830152505050565b60005b8381101561072c578082015181840152602081019050610711565b8381111561073b576000848401525b50505050565b6000600282049050600182168061075957607f821691505b6020821081141561076d5761076c6107eb565b5b50919050565b600061077e826106f5565b91507fffffffffffffffffffffffffffffffffffffffffffffffffffffffffffffffff8214156107b1576107b06107bc565b5b600182019050919050565b7f4e487b7100000000000000000000000000000000000000000000000000000000600052601160045260246000fd5b7f4e487b7100000000000000000000000000000000000000000000000000000000600052602260045260246000fd5b7f4e487b7100000000000000000000000000000000000000000000000000000000600052604160045260246000fd5b6000601f19601f8301169050919050565b610863816106f5565b811461086e57600080fd5b5056fea264697066735822122048e06e95e4b0c43c6b25ac269fa3b5f30bec2cb5aa43b5435983eb7107306a6464736f6c63430008000033",
  "linkReferences": {},
  "deployedLinkReferences": {}
}